{
  "_format": "hh-sol-artifact-1",
  "contractName": "HoodieCrewToken",
  "sourceName": "contracts/HoodieCrewToken.sol",
  "abi": [
    {
      "inputs": [],
      "stateMutability": "nonpayable",
      "type": "constructor"
    },
    {
      "anonymous": false,
      "inputs": [
        {
          "indexed": true,
          "internalType": "address",
          "name": "owner",
          "type": "address"
        },
        {
          "indexed": true,
          "internalType": "address",
          "name": "approved",
          "type": "address"
        },
        {
          "indexed": true,
          "internalType": "uint256",
          "name": "tokenId",
          "type": "uint256"
        }
      ],
      "name": "Approval",
      "type": "event"
    },
    {
      "anonymous": false,
      "inputs": [
        {
          "indexed": true,
          "internalType": "address",
          "name": "owner",
          "type": "address"
        },
        {
          "indexed": true,
          "internalType": "address",
          "name": "operator",
          "type": "address"
        },
        {
          "indexed": false,
          "internalType": "bool",
          "name": "approved",
          "type": "bool"
        }
      ],
      "name": "ApprovalForAll",
      "type": "event"
    },
    {
      "anonymous": false,
      "inputs": [
        {
          "indexed": true,
          "internalType": "address",
          "name": "previousOwner",
          "type": "address"
        },
        {
          "indexed": true,
          "internalType": "address",
          "name": "newOwner",
          "type": "address"
        }
      ],
      "name": "OwnershipTransferred",
      "type": "event"
    },
    {
      "anonymous": false,
      "inputs": [
        {
          "indexed": true,
          "internalType": "address",
          "name": "from",
          "type": "address"
        },
        {
          "indexed": true,
          "internalType": "address",
          "name": "to",
          "type": "address"
        },
        {
          "indexed": true,
          "internalType": "uint256",
          "name": "tokenId",
          "type": "uint256"
        }
      ],
      "name": "Transfer",
      "type": "event"
    },
    {
      "inputs": [
        {
          "internalType": "address",
          "name": "to",
          "type": "address"
        },
        {
          "internalType": "uint256",
          "name": "tokenId",
          "type": "uint256"
        }
      ],
      "name": "approve",
      "outputs": [],
      "stateMutability": "nonpayable",
      "type": "function"
    },
    {
      "inputs": [
        {
          "internalType": "address",
          "name": "owner",
          "type": "address"
        }
      ],
      "name": "balanceOf",
      "outputs": [
        {
          "internalType": "uint256",
          "name": "",
          "type": "uint256"
        }
      ],
      "stateMutability": "view",
      "type": "function"
    },
    {
      "inputs": [
        {
          "internalType": "uint256",
          "name": "tokenId",
          "type": "uint256"
        }
      ],
      "name": "burn",
      "outputs": [],
      "stateMutability": "nonpayable",
      "type": "function"
    },
    {
      "inputs": [
        {
          "internalType": "uint256",
          "name": "tokenId",
          "type": "uint256"
        }
      ],
      "name": "getApproved",
      "outputs": [
        {
          "internalType": "address",
          "name": "",
          "type": "address"
        }
      ],
      "stateMutability": "view",
      "type": "function"
    },
    {
      "inputs": [
        {
          "internalType": "string",
          "name": "name",
          "type": "string"
        }
      ],
      "name": "getTokenIdFromOriginName",
      "outputs": [
        {
          "internalType": "uint256",
          "name": "tokenId",
          "type": "uint256"
        }
      ],
      "stateMutability": "view",
      "type": "function"
    },
    {
      "inputs": [
        {
          "internalType": "address",
          "name": "owner",
          "type": "address"
        },
        {
          "internalType": "address",
          "name": "operator",
          "type": "address"
        }
      ],
      "name": "isApprovedForAll",
      "outputs": [
        {
          "internalType": "bool",
          "name": "",
          "type": "bool"
        }
      ],
      "stateMutability": "view",
      "type": "function"
    },
    {
      "inputs": [
        {
          "internalType": "string",
          "name": "name",
          "type": "string"
        }
      ],
      "name": "isExistFromOriginName",
      "outputs": [
        {
          "internalType": "bool",
          "name": "isExist",
          "type": "bool"
        }
      ],
      "stateMutability": "view",
      "type": "function"
    },
    {
      "inputs": [
        {
          "internalType": "string",
          "name": "tokenUri",
          "type": "string"
        },
        {
          "internalType": "string",
          "name": "name",
          "type": "string"
        }
      ],
      "name": "mint",
      "outputs": [],
      "stateMutability": "payable",
      "type": "function"
    },
    {
      "inputs": [],
      "name": "name",
      "outputs": [
        {
          "internalType": "string",
          "name": "",
          "type": "string"
        }
      ],
      "stateMutability": "view",
      "type": "function"
    },
    {
      "inputs": [],
      "name": "owner",
      "outputs": [
        {
          "internalType": "address",
          "name": "",
          "type": "address"
        }
      ],
      "stateMutability": "view",
      "type": "function"
    },
    {
      "inputs": [
        {
          "internalType": "uint256",
          "name": "tokenId",
          "type": "uint256"
        }
      ],
      "name": "ownerOf",
      "outputs": [
        {
          "internalType": "address",
          "name": "",
          "type": "address"
        }
      ],
      "stateMutability": "view",
      "type": "function"
    },
    {
      "inputs": [
        {
          "internalType": "string",
          "name": "tokenUri",
          "type": "string"
        },
        {
          "internalType": "string",
          "name": "name",
          "type": "string"
        }
      ],
      "name": "preMint",
      "outputs": [],
      "stateMutability": "payable",
      "type": "function"
    },
    {
      "inputs": [],
      "name": "renounceOwnership",
      "outputs": [],
      "stateMutability": "nonpayable",
      "type": "function"
    },
    {
      "inputs": [
        {
          "internalType": "uint256",
          "name": "_tokenId",
          "type": "uint256"
        },
        {
          "internalType": "uint256",
          "name": "_salePrice",
          "type": "uint256"
        }
      ],
      "name": "royaltyInfo",
      "outputs": [
        {
          "internalType": "address",
          "name": "receiver",
          "type": "address"
        },
        {
          "internalType": "uint256",
          "name": "royaltyAmount",
          "type": "uint256"
        }
      ],
      "stateMutability": "view",
      "type": "function"
    },
    {
      "inputs": [
        {
          "internalType": "address",
          "name": "from",
          "type": "address"
        },
        {
          "internalType": "address",
          "name": "to",
          "type": "address"
        },
        {
          "internalType": "uint256",
          "name": "tokenId",
          "type": "uint256"
        }
      ],
      "name": "safeTransferFrom",
      "outputs": [],
      "stateMutability": "nonpayable",
      "type": "function"
    },
    {
      "inputs": [
        {
          "internalType": "address",
          "name": "from",
          "type": "address"
        },
        {
          "internalType": "address",
          "name": "to",
          "type": "address"
        },
        {
          "internalType": "uint256",
          "name": "tokenId",
          "type": "uint256"
        },
        {
          "internalType": "bytes",
          "name": "_data",
          "type": "bytes"
        }
      ],
      "name": "safeTransferFrom",
      "outputs": [],
      "stateMutability": "nonpayable",
      "type": "function"
    },
    {
      "inputs": [
        {
          "internalType": "address",
          "name": "operator",
          "type": "address"
        },
        {
          "internalType": "bool",
          "name": "approved",
          "type": "bool"
        }
      ],
      "name": "setApprovalForAll",
      "outputs": [],
      "stateMutability": "nonpayable",
      "type": "function"
    },
    {
      "inputs": [
        {
          "internalType": "uint256",
          "name": "_royalty",
          "type": "uint256"
        }
      ],
      "name": "setCreatorRoyalty",
      "outputs": [],
      "stateMutability": "nonpayable",
      "type": "function"
    },
    {
      "inputs": [
        {
          "internalType": "uint256",
          "name": "_newPrice",
          "type": "uint256"
        }
      ],
      "name": "setPrice",
      "outputs": [],
      "stateMutability": "nonpayable",
      "type": "function"
    },
    {
      "inputs": [
        {
          "internalType": "uint256",
          "name": "tokenId",
          "type": "uint256"
        },
        {
          "internalType": "address",
          "name": "_tokenCreator",
          "type": "address"
        }
      ],
      "name": "setTokenCreator",
      "outputs": [],
      "stateMutability": "nonpayable",
      "type": "function"
    },
    {
      "inputs": [
        {
          "internalType": "bytes4",
          "name": "interfaceId",
          "type": "bytes4"
        }
      ],
      "name": "supportsInterface",
      "outputs": [
        {
          "internalType": "bool",
          "name": "",
          "type": "bool"
        }
      ],
      "stateMutability": "view",
      "type": "function"
    },
    {
      "inputs": [],
      "name": "symbol",
      "outputs": [
        {
          "internalType": "string",
          "name": "",
          "type": "string"
        }
      ],
      "stateMutability": "view",
      "type": "function"
    },
    {
      "inputs": [
        {
          "internalType": "uint256",
          "name": "index",
          "type": "uint256"
        }
      ],
      "name": "tokenByIndex",
      "outputs": [
        {
          "internalType": "uint256",
          "name": "",
          "type": "uint256"
        }
      ],
      "stateMutability": "view",
      "type": "function"
    },
    {
      "inputs": [
        {
          "internalType": "uint256",
          "name": "tokenId",
          "type": "uint256"
        }
      ],
      "name": "tokenCreator",
      "outputs": [
        {
          "internalType": "address",
          "name": "",
          "type": "address"
        }
      ],
      "stateMutability": "view",
      "type": "function"
    },
    {
      "inputs": [
        {
          "internalType": "address",
          "name": "owner",
          "type": "address"
        },
        {
          "internalType": "uint256",
          "name": "index",
          "type": "uint256"
        }
      ],
      "name": "tokenOfOwnerByIndex",
      "outputs": [
        {
          "internalType": "uint256",
          "name": "",
          "type": "uint256"
        }
      ],
      "stateMutability": "view",
      "type": "function"
    },
    {
      "inputs": [
        {
          "internalType": "uint256",
          "name": "tokenId",
          "type": "uint256"
        }
      ],
      "name": "tokenURI",
      "outputs": [
        {
          "internalType": "string",
          "name": "",
          "type": "string"
        }
      ],
      "stateMutability": "view",
      "type": "function"
    },
    {
      "inputs": [],
      "name": "totalSupply",
      "outputs": [
        {
          "internalType": "uint256",
          "name": "",
          "type": "uint256"
        }
      ],
      "stateMutability": "view",
      "type": "function"
    },
    {
      "inputs": [
        {
          "internalType": "address",
          "name": "from",
          "type": "address"
        },
        {
          "internalType": "address",
          "name": "to",
          "type": "address"
        },
        {
          "internalType": "uint256",
          "name": "tokenId",
          "type": "uint256"
        }
      ],
      "name": "transferFrom",
      "outputs": [],
      "stateMutability": "nonpayable",
      "type": "function"
    },
    {
      "inputs": [
        {
          "internalType": "address",
          "name": "newOwner",
          "type": "address"
        }
      ],
      "name": "transferOwnership",
      "outputs": [],
      "stateMutability": "nonpayable",
      "type": "function"
    },
    {
      "inputs": [
        {
          "internalType": "uint256",
          "name": "_limit",
          "type": "uint256"
        }
      ],
      "name": "updateMintableLimit",
      "outputs": [],
      "stateMutability": "nonpayable",
      "type": "function"
    },
    {
      "inputs": [],
      "name": "withdraw",
      "outputs": [],
      "stateMutability": "nonpayable",
      "type": "function"
    }
  ],
  "bytecode": "0x60806040526729a2241af62c0000601155678ac7230489e800006012556064601360006101000a81548160ff021916908360ff16021790555061271060145560036015553480156200005057600080fd5b506040518060400160405280600a81526020017f486f6f64696543726577000000000000000000000000000000000000000000008152506040518060400160405280600481526020017f48444357000000000000000000000000000000000000000000000000000000008152508160009080519060200190620000d5929190620001ed565b508060019080519060200190620000ee929190620001ed565b50505062000111620001056200011f60201b60201c565b6200012760201b60201c565b6001600c8190555062000302565b600033905090565b6000600b60009054906101000a900473ffffffffffffffffffffffffffffffffffffffff16905081600b60006101000a81548173ffffffffffffffffffffffffffffffffffffffff021916908373ffffffffffffffffffffffffffffffffffffffff1602179055508173ffffffffffffffffffffffffffffffffffffffff168173ffffffffffffffffffffffffffffffffffffffff167f8be0079c531659141344cd1fd0a4f28419497f9722a3daafe3b4186f6b6457e060405160405180910390a35050565b828054620001fb906200029d565b90600052602060002090601f0160209004810192826200021f57600085556200026b565b82601f106200023a57805160ff19168380011785556200026b565b828001600101855582156200026b579182015b828111156200026a5782518255916020019190600101906200024d565b5b5090506200027a91906200027e565b5090565b5b80821115620002995760008160009055506001016200027f565b5090565b60006002820490506001821680620002b657607f821691505b60208210811415620002cd57620002cc620002d3565b5b50919050565b7f4e487b7100000000000000000000000000000000000000000000000000000000600052602260045260246000fd5b614dd680620003126000396000f3fe6080604052600436106101d85760003560e01c80636352211e1161010257806395d89b4111610095578063c87b56dd11610064578063c87b56dd146106c3578063e985e9c514610700578063f0b614ae1461073d578063f2fde38b14610766576101d8565b806395d89b411461061d578063a22cb46514610648578063b653861b14610671578063b88d4fde1461069a576101d8565b80637a1897fc116100d15780637a1897fc146105705780638aa0fdad146105ad5780638da5cb5b146105c957806391b7f5ed146105f4576101d8565b80636352211e146104b657806370a08231146104f3578063715018a6146105305780637935a8ad14610547576101d8565b8063284297cf1161017a57806340c1a0641161014957806340c1a064146103ea57806342842e0e1461042757806342966c68146104505780634f6ccce714610479576101d8565b8063284297cf1461031b5780632a55205a146103585780632f745c59146103965780633ccfd60b146103d3576101d8565b8063095ea7b3116101b6578063095ea7b31461028257806318160ddd146102ab57806318f500a3146102d657806323b872dd146102f2576101d8565b806301ffc9a7146101dd57806306fdde031461021a578063081812fc14610245575b600080fd5b3480156101e957600080fd5b5061020460048036038101906101ff91906135f8565b61078f565b6040516102119190613d4d565b60405180910390f35b34801561022657600080fd5b5061022f6107a1565b60405161023c9190613d68565b60405180910390f35b34801561025157600080fd5b5061026c600480360381019061026791906136f7565b610833565b6040516102799190613cbd565b60405180910390f35b34801561028e57600080fd5b506102a960048036038101906102a491906135bc565b6108b8565b005b3480156102b757600080fd5b506102c06109d0565b6040516102cd919061414a565b60405180910390f35b6102f060048036038101906102eb919061368b565b6109dd565b005b3480156102fe57600080fd5b50610319600480360381019061031491906134b6565b610bd3565b005b34801561032757600080fd5b50610342600480360381019061033d919061364a565b610c33565b60405161034f919061414a565b60405180910390f35b34801561036457600080fd5b5061037f600480360381019061037a919061375c565b610cbc565b60405161038d929190613d24565b60405180910390f35b3480156103a257600080fd5b506103bd60048036038101906103b891906135bc565b610d2f565b6040516103ca919061414a565b60405180910390f35b3480156103df57600080fd5b506103e8610dd4565b005b3480156103f657600080fd5b50610411600480360381019061040c91906136f7565b610e9f565b60405161041e9190613cbd565b60405180910390f35b34801561043357600080fd5b5061044e600480360381019061044991906134b6565b610f24565b005b34801561045c57600080fd5b50610477600480360381019061047291906136f7565b610f44565b005b34801561048557600080fd5b506104a0600480360381019061049b91906136f7565b610f50565b6040516104ad919061414a565b60405180910390f35b3480156104c257600080fd5b506104dd60048036038101906104d891906136f7565b610fe7565b6040516104ea9190613cbd565b60405180910390f35b3480156104ff57600080fd5b5061051a60048036038101906105159190613451565b611099565b604051610527919061414a565b60405180910390f35b34801561053c57600080fd5b50610545611151565b005b34801561055357600080fd5b5061056e600480360381019061056991906136f7565b6111d9565b005b34801561057c57600080fd5b506105976004803603810190610592919061364a565b61125f565b6040516105a49190613d4d565b60405180910390f35b6105c760048036038101906105c2919061368b565b61128a565b005b3480156105d557600080fd5b506105de611470565b6040516105eb9190613cbd565b60405180910390f35b34801561060057600080fd5b5061061b600480360381019061061691906136f7565b61149a565b005b34801561062957600080fd5b50610632611520565b60405161063f9190613d68565b60405180910390f35b34801561065457600080fd5b5061066f600480360381019061066a9190613580565b6115b2565b005b34801561067d57600080fd5b50610698600480360381019061069391906136f7565b611733565b005b3480156106a657600080fd5b506106c160048036038101906106bc9190613505565b6117b9565b005b3480156106cf57600080fd5b506106ea60048036038101906106e591906136f7565b61181b565b6040516106f79190613d68565b60405180910390f35b34801561070c57600080fd5b506107276004803603810190610722919061347a565b61182d565b6040516107349190613d4d565b60405180910390f35b34801561074957600080fd5b50610764600480360381019061075f9190613720565b6118c1565b005b34801561077257600080fd5b5061078d60048036038101906107889190613451565b61195f565b005b600061079a82611a57565b9050919050565b6060600080546107b0906143fa565b80601f01602080910402602001604051908101604052809291908181526020018280546107dc906143fa565b80156108295780601f106107fe57610100808354040283529160200191610829565b820191906000526020600020905b81548152906001019060200180831161080c57829003601f168201915b5050505050905090565b600061083e82611ad1565b61087d576040517f08c379a000000000000000000000000000000000000000000000000000000000815260040161087490613faa565b60405180910390fd5b6004600083815260200190815260200160002060009054906101000a900473ffffffffffffffffffffffffffffffffffffffff169050919050565b60006108c382610fe7565b90508073ffffffffffffffffffffffffffffffffffffffff168373ffffffffffffffffffffffffffffffffffffffff161415610934576040517f08c379a000000000000000000000000000000000000000000000000000000000815260040161092b9061404a565b60405180910390fd5b8073ffffffffffffffffffffffffffffffffffffffff16610953611b3d565b73ffffffffffffffffffffffffffffffffffffffff16148061098257506109818161097c611b3d565b61182d565b5b6109c1576040517f08c379a00000000000000000000000000000000000000000000000000000000081526004016109b890613eea565b60405180910390fd5b6109cb8383611b45565b505050565b6000600880549050905090565b6002600c541415610a23576040517f08c379a0000000000000000000000000000000000000000000000000000000008152600401610a1a906140ea565b60405180910390fd5b6002600c819055506000600f82604051610a3d9190613c82565b90815260200160405180910390205414610a8c576040517f08c379a0000000000000000000000000000000000000000000000000000000008152600401610a839061412a565b60405180910390fd5b346011541115610ad1576040517f08c379a0000000000000000000000000000000000000000000000000000000008152600401610ac890613eaa565b60405180910390fd5b601360009054906101000a900460ff1660ff16610aec6109d0565b1115610b2d576040517f08c379a0000000000000000000000000000000000000000000000000000000008152600401610b2490613dca565b60405180910390fd5b6032610b3882611bfe565b1115610b79576040517f08c379a0000000000000000000000000000000000000000000000000000000008152600401610b70906140ca565b60405180910390fd5b610b83600d611c0e565b6000610b8f600d611c24565b9050610b9b3382611c32565b610ba58184611c50565b610baf81336118c1565b610bb98282611cc4565b610bc68133601554611d5b565b506001600c819055505050565b610be4610bde611b3d565b82611df2565b610c23576040517f08c379a0000000000000000000000000000000000000000000000000000000008152600401610c1a9061408a565b60405180910390fd5b610c2e838383611ed0565b505050565b600080600f83604051610c469190613c82565b9081526020016040518091039020541415610c96576040517f08c379a0000000000000000000000000000000000000000000000000000000008152600401610c8d9061406a565b60405180910390fd5b600f82604051610ca69190613c82565b9081526020016040518091039020549050919050565b6000806010600085815260200190815260200160002060000160009054906101000a900473ffffffffffffffffffffffffffffffffffffffff1691506064601060008681526020019081526020016000206001015484610d1c91906142b6565b610d269190614285565b90509250929050565b6000610d3a83611099565b8210610d7b576040517f08c379a0000000000000000000000000000000000000000000000000000000008152600401610d7290613dea565b60405180910390fd5b600660008473ffffffffffffffffffffffffffffffffffffffff1673ffffffffffffffffffffffffffffffffffffffff168152602001908152602001600020600083815260200190815260200160002054905092915050565b610ddc611b3d565b73ffffffffffffffffffffffffffffffffffffffff16610dfa611470565b73ffffffffffffffffffffffffffffffffffffffff1614610e50576040517f08c379a0000000000000000000000000000000000000000000000000000000008152600401610e4790613fca565b60405180910390fd5b60004790503373ffffffffffffffffffffffffffffffffffffffff166108fc829081150290604051600060405180830381858888f19350505050158015610e9b573d6000803e3d6000fd5b5050565b6000610eaa82611ad1565b610ee9576040517f08c379a0000000000000000000000000000000000000000000000000000000008152600401610ee090613d8a565b60405180910390fd5b600e600083815260200190815260200160002060009054906101000a900473ffffffffffffffffffffffffffffffffffffffff169050919050565b610f3f838383604051806020016040528060008152506117b9565b505050565b610f4d8161212c565b50565b6000610f5a6109d0565b8210610f9b576040517f08c379a0000000000000000000000000000000000000000000000000000000008152600401610f92906140aa565b60405180910390fd5b60088281548110610fd5577f4e487b7100000000000000000000000000000000000000000000000000000000600052603260045260246000fd5b90600052602060002001549050919050565b6000806002600084815260200190815260200160002060009054906101000a900473ffffffffffffffffffffffffffffffffffffffff169050600073ffffffffffffffffffffffffffffffffffffffff168173ffffffffffffffffffffffffffffffffffffffff161415611090576040517f08c379a000000000000000000000000000000000000000000000000000000000815260040161108790613f2a565b60405180910390fd5b80915050919050565b60008073ffffffffffffffffffffffffffffffffffffffff168273ffffffffffffffffffffffffffffffffffffffff16141561110a576040517f08c379a000000000000000000000000000000000000000000000000000000000815260040161110190613f0a565b60405180910390fd5b600360008373ffffffffffffffffffffffffffffffffffffffff1673ffffffffffffffffffffffffffffffffffffffff168152602001908152602001600020549050919050565b611159611b3d565b73ffffffffffffffffffffffffffffffffffffffff16611177611470565b73ffffffffffffffffffffffffffffffffffffffff16146111cd576040517f08c379a00000000000000000000000000000000000000000000000000000000081526004016111c490613fca565b60405180910390fd5b6111d76000612188565b565b6111e1611b3d565b73ffffffffffffffffffffffffffffffffffffffff166111ff611470565b73ffffffffffffffffffffffffffffffffffffffff1614611255576040517f08c379a000000000000000000000000000000000000000000000000000000000815260040161124c90613fca565b60405180910390fd5b8060148190555050565b600080600f836040516112729190613c82565b90815260200160405180910390205414159050919050565b6002600c5414156112d0576040517f08c379a00000000000000000000000000000000000000000000000000000000081526004016112c7906140ea565b60405180910390fd5b6002600c819055506000600f826040516112ea9190613c82565b90815260200160405180910390205414611339576040517f08c379a00000000000000000000000000000000000000000000000000000000081526004016113309061412a565b60405180910390fd5b34601254111561137e576040517f08c379a000000000000000000000000000000000000000000000000000000000815260040161137590613eaa565b60405180910390fd5b6014546113896109d0565b11156113ca576040517f08c379a00000000000000000000000000000000000000000000000000000000081526004016113c190613dca565b60405180910390fd5b60326113d582611bfe565b1115611416576040517f08c379a000000000000000000000000000000000000000000000000000000000815260040161140d906140ca565b60405180910390fd5b611420600d611c0e565b600061142c600d611c24565b90506114383382611c32565b6114428184611c50565b61144c81336118c1565b6114568282611cc4565b6114638133601554611d5b565b506001600c819055505050565b6000600b60009054906101000a900473ffffffffffffffffffffffffffffffffffffffff16905090565b6114a2611b3d565b73ffffffffffffffffffffffffffffffffffffffff166114c0611470565b73ffffffffffffffffffffffffffffffffffffffff1614611516576040517f08c379a000000000000000000000000000000000000000000000000000000000815260040161150d90613fca565b60405180910390fd5b8060128190555050565b60606001805461152f906143fa565b80601f016020809104026020016040519081016040528092919081815260200182805461155b906143fa565b80156115a85780601f1061157d576101008083540402835291602001916115a8565b820191906000526020600020905b81548152906001019060200180831161158b57829003601f168201915b5050505050905090565b6115ba611b3d565b73ffffffffffffffffffffffffffffffffffffffff168273ffffffffffffffffffffffffffffffffffffffff161415611628576040517f08c379a000000000000000000000000000000000000000000000000000000000815260040161161f90613e8a565b60405180910390fd5b8060056000611635611b3d565b73ffffffffffffffffffffffffffffffffffffffff1673ffffffffffffffffffffffffffffffffffffffff16815260200190815260200160002060008473ffffffffffffffffffffffffffffffffffffffff1673ffffffffffffffffffffffffffffffffffffffff16815260200190815260200160002060006101000a81548160ff0219169083151502179055508173ffffffffffffffffffffffffffffffffffffffff166116e2611b3d565b73ffffffffffffffffffffffffffffffffffffffff167f17307eab39ab6107e8899845ad3d59bd9653f200f220920489ca2b5937696c31836040516117279190613d4d565b60405180910390a35050565b61173b611b3d565b73ffffffffffffffffffffffffffffffffffffffff16611759611470565b73ffffffffffffffffffffffffffffffffffffffff16146117af576040517f08c379a00000000000000000000000000000000000000000000000000000000081526004016117a690613fca565b60405180910390fd5b8060158190555050565b6117ca6117c4611b3d565b83611df2565b611809576040517f08c379a00000000000000000000000000000000000000000000000000000000081526004016118009061408a565b60405180910390fd5b6118158484848461224e565b50505050565b6060611826826122aa565b9050919050565b6000600560008473ffffffffffffffffffffffffffffffffffffffff1673ffffffffffffffffffffffffffffffffffffffff16815260200190815260200160002060008373ffffffffffffffffffffffffffffffffffffffff1673ffffffffffffffffffffffffffffffffffffffff16815260200190815260200160002060009054906101000a900460ff16905092915050565b6118ca82611ad1565b611909576040517f08c379a00000000000000000000000000000000000000000000000000000000081526004016119009061402a565b60405180910390fd5b80600e600084815260200190815260200160002060006101000a81548173ffffffffffffffffffffffffffffffffffffffff021916908373ffffffffffffffffffffffffffffffffffffffff1602179055505050565b611967611b3d565b73ffffffffffffffffffffffffffffffffffffffff16611985611470565b73ffffffffffffffffffffffffffffffffffffffff16146119db576040517f08c379a00000000000000000000000000000000000000000000000000000000081526004016119d290613fca565b60405180910390fd5b600073ffffffffffffffffffffffffffffffffffffffff168173ffffffffffffffffffffffffffffffffffffffff161415611a4b576040517f08c379a0000000000000000000000000000000000000000000000000000000008152600401611a4290613e2a565b60405180910390fd5b611a5481612188565b50565b60007f780e9d63000000000000000000000000000000000000000000000000000000007bffffffffffffffffffffffffffffffffffffffffffffffffffffffff1916827bffffffffffffffffffffffffffffffffffffffffffffffffffffffff19161480611aca5750611ac9826123fc565b5b9050919050565b60008073ffffffffffffffffffffffffffffffffffffffff166002600084815260200190815260200160002060009054906101000a900473ffffffffffffffffffffffffffffffffffffffff1673ffffffffffffffffffffffffffffffffffffffff1614159050919050565b600033905090565b816004600083815260200190815260200160002060006101000a81548173ffffffffffffffffffffffffffffffffffffffff021916908373ffffffffffffffffffffffffffffffffffffffff160217905550808273ffffffffffffffffffffffffffffffffffffffff16611bb883610fe7565b73ffffffffffffffffffffffffffffffffffffffff167f8c5be1e5ebec7d5bd14f71427d1e84f3dd0314c0f7b2291e5b200ac8c7c3b92560405160405180910390a45050565b6000808251905080915050919050565b6001816000016000828254019250508190555050565b600081600001549050919050565b611c4c8282604051806020016040528060008152506124de565b5050565b611c5982611ad1565b611c98576040517f08c379a0000000000000000000000000000000000000000000000000000000008152600401611c8f90613f4a565b60405180910390fd5b80600a60008481526020019081526020016000209080519060200190611cbf929190613235565b505050565b600073ffffffffffffffffffffffffffffffffffffffff163373ffffffffffffffffffffffffffffffffffffffff161415611d34576040517f08c379a0000000000000000000000000000000000000000000000000000000008152600401611d2b90613daa565b60405180910390fd5b80600f83604051611d459190613c82565b9081526020016040518091039020819055505050565b60405180604001604052808373ffffffffffffffffffffffffffffffffffffffff168152602001828152506010600085815260200190815260200160002060008201518160000160006101000a81548173ffffffffffffffffffffffffffffffffffffffff021916908373ffffffffffffffffffffffffffffffffffffffff16021790555060208201518160010155905050505050565b6000611dfd82611ad1565b611e3c576040517f08c379a0000000000000000000000000000000000000000000000000000000008152600401611e3390613eca565b60405180910390fd5b6000611e4783610fe7565b90508073ffffffffffffffffffffffffffffffffffffffff168473ffffffffffffffffffffffffffffffffffffffff161480611eb657508373ffffffffffffffffffffffffffffffffffffffff16611e9e84610833565b73ffffffffffffffffffffffffffffffffffffffff16145b80611ec75750611ec6818561182d565b5b91505092915050565b8273ffffffffffffffffffffffffffffffffffffffff16611ef082610fe7565b73ffffffffffffffffffffffffffffffffffffffff1614611f46576040517f08c379a0000000000000000000000000000000000000000000000000000000008152600401611f3d90613fea565b60405180910390fd5b600073ffffffffffffffffffffffffffffffffffffffff168273ffffffffffffffffffffffffffffffffffffffff161415611fb6576040517f08c379a0000000000000000000000000000000000000000000000000000000008152600401611fad90613e6a565b60405180910390fd5b611fc1838383612539565b611fcc600082611b45565b6001600360008573ffffffffffffffffffffffffffffffffffffffff1673ffffffffffffffffffffffffffffffffffffffff168152602001908152602001600020600082825461201c9190614310565b925050819055506001600360008473ffffffffffffffffffffffffffffffffffffffff1673ffffffffffffffffffffffffffffffffffffffff1681526020019081526020016000206000828254612073919061422f565b92505081905550816002600083815260200190815260200160002060006101000a81548173ffffffffffffffffffffffffffffffffffffffff021916908373ffffffffffffffffffffffffffffffffffffffff160217905550808273ffffffffffffffffffffffffffffffffffffffff168473ffffffffffffffffffffffffffffffffffffffff167fddf252ad1be2c89b69c2b068fc378daa952ba7f163c4a11628f55a4df523b3ef60405160405180910390a4505050565b61213d612137611b3d565b82611df2565b61217c576040517f08c379a00000000000000000000000000000000000000000000000000000000081526004016121739061410a565b60405180910390fd5b61218581612549565b50565b6000600b60009054906101000a900473ffffffffffffffffffffffffffffffffffffffff16905081600b60006101000a81548173ffffffffffffffffffffffffffffffffffffffff021916908373ffffffffffffffffffffffffffffffffffffffff1602179055508173ffffffffffffffffffffffffffffffffffffffff168173ffffffffffffffffffffffffffffffffffffffff167f8be0079c531659141344cd1fd0a4f28419497f9722a3daafe3b4186f6b6457e060405160405180910390a35050565b612259848484611ed0565b612265848484846125f3565b6122a4576040517f08c379a000000000000000000000000000000000000000000000000000000000815260040161229b90613e0a565b60405180910390fd5b50505050565b60606122b582611ad1565b6122f4576040517f08c379a00000000000000000000000000000000000000000000000000000000081526004016122eb90613f8a565b60405180910390fd5b6000600a60008481526020019081526020016000208054612314906143fa565b80601f0160208091040260200160405190810160405280929190818152602001828054612340906143fa565b801561238d5780601f106123625761010080835404028352916020019161238d565b820191906000526020600020905b81548152906001019060200180831161237057829003601f168201915b50505050509050600061239e61278a565b90506000815114156123b45781925050506123f7565b6000825111156123e95780826040516020016123d1929190613c99565b604051602081830303815290604052925050506123f7565b6123f2846127a1565b925050505b919050565b60007f80ac58cd000000000000000000000000000000000000000000000000000000007bffffffffffffffffffffffffffffffffffffffffffffffffffffffff1916827bffffffffffffffffffffffffffffffffffffffffffffffffffffffff191614806124c757507f5b5e139f000000000000000000000000000000000000000000000000000000007bffffffffffffffffffffffffffffffffffffffffffffffffffffffff1916827bffffffffffffffffffffffffffffffffffffffffffffffffffffffff1916145b806124d757506124d682612848565b5b9050919050565b6124e883836128b2565b6124f560008484846125f3565b612534576040517f08c379a000000000000000000000000000000000000000000000000000000000815260040161252b90613e0a565b60405180910390fd5b505050565b612544838383612a80565b505050565b61255281612b94565b600073ffffffffffffffffffffffffffffffffffffffff16600e600083815260200190815260200160002060009054906101000a900473ffffffffffffffffffffffffffffffffffffffff1673ffffffffffffffffffffffffffffffffffffffff16146125f057600e600082815260200190815260200160002060006101000a81549073ffffffffffffffffffffffffffffffffffffffff02191690555b50565b60006126148473ffffffffffffffffffffffffffffffffffffffff16612be7565b1561277d578373ffffffffffffffffffffffffffffffffffffffff1663150b7a0261263d611b3d565b8786866040518563ffffffff1660e01b815260040161265f9493929190613cd8565b602060405180830381600087803b15801561267957600080fd5b505af19250505080156126aa57506040513d601f19601f820116820180604052508101906126a79190613621565b60015b61272d573d80600081146126da576040519150601f19603f3d011682016040523d82523d6000602084013e6126df565b606091505b50600081511415612725576040517f08c379a000000000000000000000000000000000000000000000000000000000815260040161271c90613e0a565b60405180910390fd5b805181602001fd5b63150b7a0260e01b7bffffffffffffffffffffffffffffffffffffffffffffffffffffffff1916817bffffffffffffffffffffffffffffffffffffffffffffffffffffffff191614915050612782565b600190505b949350505050565b606060405180602001604052806000815250905090565b60606127ac82611ad1565b6127eb576040517f08c379a00000000000000000000000000000000000000000000000000000000081526004016127e29061400a565b60405180910390fd5b60006127f561278a565b905060008151116128155760405180602001604052806000815250612840565b8061281f84612bfa565b604051602001612830929190613c99565b6040516020818303038152906040525b915050919050565b60007f01ffc9a7000000000000000000000000000000000000000000000000000000007bffffffffffffffffffffffffffffffffffffffffffffffffffffffff1916827bffffffffffffffffffffffffffffffffffffffffffffffffffffffff1916149050919050565b600073ffffffffffffffffffffffffffffffffffffffff168273ffffffffffffffffffffffffffffffffffffffff161415612922576040517f08c379a000000000000000000000000000000000000000000000000000000000815260040161291990613f6a565b60405180910390fd5b61292b81611ad1565b1561296b576040517f08c379a000000000000000000000000000000000000000000000000000000000815260040161296290613e4a565b60405180910390fd5b61297760008383612539565b6001600360008473ffffffffffffffffffffffffffffffffffffffff1673ffffffffffffffffffffffffffffffffffffffff16815260200190815260200160002060008282546129c7919061422f565b92505081905550816002600083815260200190815260200160002060006101000a81548173ffffffffffffffffffffffffffffffffffffffff021916908373ffffffffffffffffffffffffffffffffffffffff160217905550808273ffffffffffffffffffffffffffffffffffffffff16600073ffffffffffffffffffffffffffffffffffffffff167fddf252ad1be2c89b69c2b068fc378daa952ba7f163c4a11628f55a4df523b3ef60405160405180910390a45050565b612a8b838383612da7565b600073ffffffffffffffffffffffffffffffffffffffff168373ffffffffffffffffffffffffffffffffffffffff161415612ace57612ac981612dac565b612b0d565b8173ffffffffffffffffffffffffffffffffffffffff168373ffffffffffffffffffffffffffffffffffffffff1614612b0c57612b0b8382612df5565b5b5b600073ffffffffffffffffffffffffffffffffffffffff168273ffffffffffffffffffffffffffffffffffffffff161415612b5057612b4b81612f62565b612b8f565b8273ffffffffffffffffffffffffffffffffffffffff168273ffffffffffffffffffffffffffffffffffffffff1614612b8e57612b8d82826130a5565b5b5b505050565b612b9d81613124565b6000600a60008381526020019081526020016000208054612bbd906143fa565b905014612be457600a60008281526020019081526020016000206000612be391906132bb565b5b50565b600080823b905060008111915050919050565b60606000821415612c42576040518060400160405280600181526020017f30000000000000000000000000000000000000000000000000000000000000008152509050612da2565b600082905060005b60008214612c74578080612c5d9061445d565b915050600a82612c6d9190614285565b9150612c4a565b60008167ffffffffffffffff811115612cb6577f4e487b7100000000000000000000000000000000000000000000000000000000600052604160045260246000fd5b6040519080825280601f01601f191660200182016040528015612ce85781602001600182028036833780820191505090505b5090505b60008514612d9b57600182612d019190614310565b9150600a85612d1091906144a6565b6030612d1c919061422f565b60f81b818381518110612d58577f4e487b7100000000000000000000000000000000000000000000000000000000600052603260045260246000fd5b60200101907effffffffffffffffffffffffffffffffffffffffffffffffffffffffffffff1916908160001a905350600a85612d949190614285565b9450612cec565b8093505050505b919050565b505050565b6008805490506009600083815260200190815260200160002081905550600881908060018154018082558091505060019003906000526020600020016000909190919091505550565b60006001612e0284611099565b612e0c9190614310565b9050600060076000848152602001908152602001600020549050818114612ef1576000600660008673ffffffffffffffffffffffffffffffffffffffff1673ffffffffffffffffffffffffffffffffffffffff168152602001908152602001600020600084815260200190815260200160002054905080600660008773ffffffffffffffffffffffffffffffffffffffff1673ffffffffffffffffffffffffffffffffffffffff168152602001908152602001600020600084815260200190815260200160002081905550816007600083815260200190815260200160002081905550505b6007600084815260200190815260200160002060009055600660008573ffffffffffffffffffffffffffffffffffffffff1673ffffffffffffffffffffffffffffffffffffffff16815260200190815260200160002060008381526020019081526020016000206000905550505050565b60006001600880549050612f769190614310565b9050600060096000848152602001908152602001600020549050600060088381548110612fcc577f4e487b7100000000000000000000000000000000000000000000000000000000600052603260045260246000fd5b906000526020600020015490508060088381548110613014577f4e487b7100000000000000000000000000000000000000000000000000000000600052603260045260246000fd5b906000526020600020018190555081600960008381526020019081526020016000208190555060096000858152602001908152602001600020600090556008805480613089577f4e487b7100000000000000000000000000000000000000000000000000000000600052603160045260246000fd5b6001900381819060005260206000200160009055905550505050565b60006130b083611099565b905081600660008573ffffffffffffffffffffffffffffffffffffffff1673ffffffffffffffffffffffffffffffffffffffff168152602001908152602001600020600083815260200190815260200160002081905550806007600084815260200190815260200160002081905550505050565b600061312f82610fe7565b905061313d81600084612539565b613148600083611b45565b6001600360008373ffffffffffffffffffffffffffffffffffffffff1673ffffffffffffffffffffffffffffffffffffffff16815260200190815260200160002060008282546131989190614310565b925050819055506002600083815260200190815260200160002060006101000a81549073ffffffffffffffffffffffffffffffffffffffff021916905581600073ffffffffffffffffffffffffffffffffffffffff168273ffffffffffffffffffffffffffffffffffffffff167fddf252ad1be2c89b69c2b068fc378daa952ba7f163c4a11628f55a4df523b3ef60405160405180910390a45050565b828054613241906143fa565b90600052602060002090601f01602090048101928261326357600085556132aa565b82601f1061327c57805160ff19168380011785556132aa565b828001600101855582156132aa579182015b828111156132a957825182559160200191906001019061328e565b5b5090506132b791906132fb565b5090565b5080546132c7906143fa565b6000825580601f106132d957506132f8565b601f0160209004906000526020600020908101906132f791906132fb565b5b50565b5b808211156133145760008160009055506001016132fc565b5090565b600061332b6133268461418a565b614165565b90508281526020810184848401111561334357600080fd5b61334e8482856143b8565b509392505050565b6000613369613364846141bb565b614165565b90508281526020810184848401111561338157600080fd5b61338c8482856143b8565b509392505050565b6000813590506133a381614d44565b92915050565b6000813590506133b881614d5b565b92915050565b6000813590506133cd81614d72565b92915050565b6000815190506133e281614d72565b92915050565b600082601f8301126133f957600080fd5b8135613409848260208601613318565b91505092915050565b600082601f83011261342357600080fd5b8135613433848260208601613356565b91505092915050565b60008135905061344b81614d89565b92915050565b60006020828403121561346357600080fd5b600061347184828501613394565b91505092915050565b6000806040838503121561348d57600080fd5b600061349b85828601613394565b92505060206134ac85828601613394565b9150509250929050565b6000806000606084860312156134cb57600080fd5b60006134d986828701613394565b93505060206134ea86828701613394565b92505060406134fb8682870161343c565b9150509250925092565b6000806000806080858703121561351b57600080fd5b600061352987828801613394565b945050602061353a87828801613394565b935050604061354b8782880161343c565b925050606085013567ffffffffffffffff81111561356857600080fd5b613574878288016133e8565b91505092959194509250565b6000806040838503121561359357600080fd5b60006135a185828601613394565b92505060206135b2858286016133a9565b9150509250929050565b600080604083850312156135cf57600080fd5b60006135dd85828601613394565b92505060206135ee8582860161343c565b9150509250929050565b60006020828403121561360a57600080fd5b6000613618848285016133be565b91505092915050565b60006020828403121561363357600080fd5b6000613641848285016133d3565b91505092915050565b60006020828403121561365c57600080fd5b600082013567ffffffffffffffff81111561367657600080fd5b61368284828501613412565b91505092915050565b6000806040838503121561369e57600080fd5b600083013567ffffffffffffffff8111156136b857600080fd5b6136c485828601613412565b925050602083013567ffffffffffffffff8111156136e157600080fd5b6136ed85828601613412565b9150509250929050565b60006020828403121561370957600080fd5b60006137178482850161343c565b91505092915050565b6000806040838503121561373357600080fd5b60006137418582860161343c565b925050602061375285828601613394565b9150509250929050565b6000806040838503121561376f57600080fd5b600061377d8582860161343c565b925050602061378e8582860161343c565b9150509250929050565b6137a181614344565b82525050565b6137b081614356565b82525050565b60006137c1826141ec565b6137cb8185614202565b93506137db8185602086016143c7565b6137e481614593565b840191505092915050565b60006137fa826141f7565b6138048185614213565b93506138148185602086016143c7565b61381d81614593565b840191505092915050565b6000613833826141f7565b61383d8185614224565b935061384d8185602086016143c7565b80840191505092915050565b6000613866603483614213565b9150613871826145a4565b604082019050919050565b6000613889601683614213565b9150613894826145f3565b602082019050919050565b60006138ac601583614213565b91506138b78261461c565b602082019050919050565b60006138cf602b83614213565b91506138da82614645565b604082019050919050565b60006138f2603283614213565b91506138fd82614694565b604082019050919050565b6000613915602683614213565b9150613920826146e3565b604082019050919050565b6000613938601c83614213565b915061394382614732565b602082019050919050565b600061395b602483614213565b91506139668261475b565b604082019050919050565b600061397e601983614213565b9150613989826147aa565b602082019050919050565b60006139a1601f83614213565b91506139ac826147d3565b602082019050919050565b60006139c4602c83614213565b91506139cf826147fc565b604082019050919050565b60006139e7603883614213565b91506139f28261484b565b604082019050919050565b6000613a0a602a83614213565b9150613a158261489a565b604082019050919050565b6000613a2d602983614213565b9150613a38826148e9565b604082019050919050565b6000613a50602e83614213565b9150613a5b82614938565b604082019050919050565b6000613a73602083614213565b9150613a7e82614987565b602082019050919050565b6000613a96603183614213565b9150613aa1826149b0565b604082019050919050565b6000613ab9602c83614213565b9150613ac4826149ff565b604082019050919050565b6000613adc602083614213565b9150613ae782614a4e565b602082019050919050565b6000613aff602983614213565b9150613b0a82614a77565b604082019050919050565b6000613b22602f83614213565b9150613b2d82614ac6565b604082019050919050565b6000613b45603183614213565b9150613b5082614b15565b604082019050919050565b6000613b68602183614213565b9150613b7382614b64565b604082019050919050565b6000613b8b601a83614213565b9150613b9682614bb3565b602082019050919050565b6000613bae603183614213565b9150613bb982614bdc565b604082019050919050565b6000613bd1602c83614213565b9150613bdc82614c2b565b604082019050919050565b6000613bf4601883614213565b9150613bff82614c7a565b602082019050919050565b6000613c17601f83614213565b9150613c2282614ca3565b602082019050919050565b6000613c3a603083614213565b9150613c4582614ccc565b604082019050919050565b6000613c5d601783614213565b9150613c6882614d1b565b602082019050919050565b613c7c816143ae565b82525050565b6000613c8e8284613828565b915081905092915050565b6000613ca58285613828565b9150613cb18284613828565b91508190509392505050565b6000602082019050613cd26000830184613798565b92915050565b6000608082019050613ced6000830187613798565b613cfa6020830186613798565b613d076040830185613c73565b8181036060830152613d1981846137b6565b905095945050505050565b6000604082019050613d396000830185613798565b613d466020830184613c73565b9392505050565b6000602082019050613d6260008301846137a7565b92915050565b60006020820190508181036000830152613d8281846137ef565b905092915050565b60006020820190508181036000830152613da381613859565b9050919050565b60006020820190508181036000830152613dc38161387c565b9050919050565b60006020820190508181036000830152613de38161389f565b9050919050565b60006020820190508181036000830152613e03816138c2565b9050919050565b60006020820190508181036000830152613e23816138e5565b9050919050565b60006020820190508181036000830152613e4381613908565b9050919050565b60006020820190508181036000830152613e638161392b565b9050919050565b60006020820190508181036000830152613e838161394e565b9050919050565b60006020820190508181036000830152613ea381613971565b9050919050565b60006020820190508181036000830152613ec381613994565b9050919050565b60006020820190508181036000830152613ee3816139b7565b9050919050565b60006020820190508181036000830152613f03816139da565b9050919050565b60006020820190508181036000830152613f23816139fd565b9050919050565b60006020820190508181036000830152613f4381613a20565b9050919050565b60006020820190508181036000830152613f6381613a43565b9050919050565b60006020820190508181036000830152613f8381613a66565b9050919050565b60006020820190508181036000830152613fa381613a89565b9050919050565b60006020820190508181036000830152613fc381613aac565b9050919050565b60006020820190508181036000830152613fe381613acf565b9050919050565b6000602082019050818103600083015261400381613af2565b9050919050565b6000602082019050818103600083015261402381613b15565b9050919050565b6000602082019050818103600083015261404381613b38565b9050919050565b6000602082019050818103600083015261406381613b5b565b9050919050565b6000602082019050818103600083015261408381613b7e565b9050919050565b600060208201905081810360008301526140a381613ba1565b9050919050565b600060208201905081810360008301526140c381613bc4565b9050919050565b600060208201905081810360008301526140e381613be7565b9050919050565b6000602082019050818103600083015261410381613c0a565b9050919050565b6000602082019050818103600083015261412381613c2d565b9050919050565b6000602082019050818103600083015261414381613c50565b9050919050565b600060208201905061415f6000830184613c73565b92915050565b600061416f614180565b905061417b828261442c565b919050565b6000604051905090565b600067ffffffffffffffff8211156141a5576141a4614564565b5b6141ae82614593565b9050602081019050919050565b600067ffffffffffffffff8211156141d6576141d5614564565b5b6141df82614593565b9050602081019050919050565b600081519050919050565b600081519050919050565b600082825260208201905092915050565b600082825260208201905092915050565b600081905092915050565b600061423a826143ae565b9150614245836143ae565b9250827fffffffffffffffffffffffffffffffffffffffffffffffffffffffffffffffff0382111561427a576142796144d7565b5b828201905092915050565b6000614290826143ae565b915061429b836143ae565b9250826142ab576142aa614506565b5b828204905092915050565b60006142c1826143ae565b91506142cc836143ae565b9250817fffffffffffffffffffffffffffffffffffffffffffffffffffffffffffffffff0483118215151615614305576143046144d7565b5b828202905092915050565b600061431b826143ae565b9150614326836143ae565b925082821015614339576143386144d7565b5b828203905092915050565b600061434f8261438e565b9050919050565b60008115159050919050565b60007fffffffff0000000000000000000000000000000000000000000000000000000082169050919050565b600073ffffffffffffffffffffffffffffffffffffffff82169050919050565b6000819050919050565b82818337600083830152505050565b60005b838110156143e55780820151818401526020810190506143ca565b838111156143f4576000848401525b50505050565b6000600282049050600182168061441257607f821691505b6020821081141561442657614425614535565b5b50919050565b61443582614593565b810181811067ffffffffffffffff8211171561445457614453614564565b5b80604052505050565b6000614468826143ae565b91507fffffffffffffffffffffffffffffffffffffffffffffffffffffffffffffffff82141561449b5761449a6144d7565b5b600182019050919050565b60006144b1826143ae565b91506144bc836143ae565b9250826144cc576144cb614506565b5b828206905092915050565b7f4e487b7100000000000000000000000000000000000000000000000000000000600052601160045260246000fd5b7f4e487b7100000000000000000000000000000000000000000000000000000000600052601260045260246000fd5b7f4e487b7100000000000000000000000000000000000000000000000000000000600052602260045260246000fd5b7f4e487b7100000000000000000000000000000000000000000000000000000000600052604160045260246000fd5b6000601f19601f8301169050919050565b7f486f6f646965437265773a20746f6b656e43726561746f72207175657279206660008201527f6f72206e6f6e6578697374656e7420746f6b656e000000000000000000000000602082015250565b7f696e76616c69642073656e646572206164647265737300000000000000000000600082015250565b7f657863656564206d696e7461626c65206c696d69740000000000000000000000600082015250565b7f455243373231456e756d657261626c653a206f776e657220696e646578206f7560008201527f74206f6620626f756e6473000000000000000000000000000000000000000000602082015250565b7f4552433732313a207472616e7366657220746f206e6f6e20455243373231526560008201527f63656976657220696d706c656d656e7465720000000000000000000000000000602082015250565b7f4f776e61626c653a206e6577206f776e657220697320746865207a65726f206160008201527f6464726573730000000000000000000000000000000000000000000000000000602082015250565b7f4552433732313a20746f6b656e20616c7265616479206d696e74656400000000600082015250565b7f4552433732313a207472616e7366657220746f20746865207a65726f2061646460008201527f7265737300000000000000000000000000000000000000000000000000000000602082015250565b7f4552433732313a20617070726f766520746f2063616c6c657200000000000000600082015250565b7f45746865722076616c75652073656e74206973206e6f7420636f727265637400600082015250565b7f4552433732313a206f70657261746f7220717565727920666f72206e6f6e657860008201527f697374656e7420746f6b656e0000000000000000000000000000000000000000602082015250565b7f4552433732313a20617070726f76652063616c6c6572206973206e6f74206f7760008201527f6e6572206e6f7220617070726f76656420666f7220616c6c0000000000000000602082015250565b7f4552433732313a2062616c616e636520717565727920666f7220746865207a6560008201527f726f206164647265737300000000000000000000000000000000000000000000602082015250565b7f4552433732313a206f776e657220717565727920666f72206e6f6e657869737460008201527f656e7420746f6b656e0000000000000000000000000000000000000000000000602082015250565b7f45524337323155524953746f726167653a2055524920736574206f66206e6f6e60008201527f6578697374656e7420746f6b656e000000000000000000000000000000000000602082015250565b7f4552433732313a206d696e7420746f20746865207a65726f2061646472657373600082015250565b7f45524337323155524953746f726167653a2055524920717565727920666f722060008201527f6e6f6e6578697374656e7420746f6b656e000000000000000000000000000000602082015250565b7f4552433732313a20617070726f76656420717565727920666f72206e6f6e657860008201527f697374656e7420746f6b656e0000000000000000000000000000000000000000602082015250565b7f4f776e61626c653a2063616c6c6572206973206e6f7420746865206f776e6572600082015250565b7f4552433732313a207472616e73666572206f6620746f6b656e2074686174206960008201527f73206e6f74206f776e0000000000000000000000000000000000000000000000602082015250565b7f4552433732314d657461646174613a2055524920717565727920666f72206e6f60008201527f6e6578697374656e7420746f6b656e0000000000000000000000000000000000602082015250565b7f486f6f646965437265773a20746f6b656e43726561746f7220736574206f662060008201527f6e6f6e6578697374656e7420746f6b656e000000000000000000000000000000602082015250565b7f4552433732313a20617070726f76616c20746f2063757272656e74206f776e6560008201527f7200000000000000000000000000000000000000000000000000000000000000602082015250565b7f6e6f206e616d65207265666572656420746f20746f6b656e4964000000000000600082015250565b7f4552433732313a207472616e736665722063616c6c6572206973206e6f74206f60008201527f776e6572206e6f7220617070726f766564000000000000000000000000000000602082015250565b7f455243373231456e756d657261626c653a20676c6f62616c20696e646578206f60008201527f7574206f6620626f756e64730000000000000000000000000000000000000000602082015250565b7f657863656564206e616d65206c656e677468206c696d69740000000000000000600082015250565b7f5265656e7472616e637947756172643a207265656e7472616e742063616c6c00600082015250565b7f4552433732314275726e61626c653a2063616c6c6572206973206e6f74206f7760008201527f6e6572206e6f7220617070726f76656400000000000000000000000000000000602082015250565b7f6f726967696e4e616d6520616c72656164792075736564000000000000000000600082015250565b614d4d81614344565b8114614d5857600080fd5b50565b614d6481614356565b8114614d6f57600080fd5b50565b614d7b81614362565b8114614d8657600080fd5b50565b614d92816143ae565b8114614d9d57600080fd5b5056fea2646970667358221220d08fd6aade4d12fd3b6513eb828c54ec80dda5fa7aa1671454446d418f0a2e8264736f6c63430008040033",
  "linkReferences": {},
  "deployedLinkReferences": {}
}